:1000000009C1000038C1000036C1000034C1000041
:1000100032C1000030C100002EC100002CC1000020
:100020002AC1000028C1000026C1000024C1000030
:1000300022C1000057C300001EC100001CC1000007
:100040001AC1000018C1000016C1000014C1000050
:1000500012C1000010C100000EC1000076C70000F0
:100060000AC10000BDC4000092C4000004C1000029
:1000700002C1000000C10000FEC00000FCC0000082
:10008000FAC00000F8C00000F6C00000F4C0000094
:1000900055C400002AC40000EEC00000ECC00000FF
:1000A000EAC00000E8C00000E6C00000E4C00000B4
:1000B000E2C00000E0C00000DEC00000DCC00000C4
:1000C000DAC00000D8C00000D6C00000E5C30000C0
:1000D000BAC30000D0C000008DC3000062C300009E
:1000E000CAC000001C081F080E081208160856088F
:1000F000230827082D08310835083B083F08430826
:10010000560849084D085108000021002400270026
:100110002A002D0030003300010100000401070116
:100120000A010200000A0B02090C0D0E0807030465
:1001300001000000000000000000000000000000BE
:10014000000000000000000000000000000000129D
:10015000111000000000000000000000000000007E
:10016000000000000000000000010210202008082C
:100170001020401020408002010201080402010109
:1001800002040810204080804020100804020180F2
:100190000402018040201008040201080402010149
:1001A0000204081020408001020408102040800052
:1001B000002200250028002B002E00310034000210
:1001C000010000050108010B0105050505070508EB
:1001D000080808020202020A0A08080404040401CA
:1001E00001010101010101030303030303030304EC
:1001F0000707070C0C0C0C0C0C0C0C02020202067C
:10020000060606060606060B0B0B0B0B0B0B0B006C
:100210007B0B320B11241FBECFEFD1E2DEBFCDBF6F
:1002200000E00CBF25E0A6E8B2E001C01D92A834B2
:10023000B207E1F712E0A0E0B2E0E0E4FEE100E0A6
:100240000BBF02C007900D92A638B107D9F711E095
:10025000C9E0D1E000E006C021970109802FFE012E
:100260000E94F20CC830D10780E00807A9F70E946D
:100270008F090C940F0FC4CEFC01A089B1898C9119
:10028000A689B78982FD0FC09C91818D8F5F8F7386
:10029000228D821749F0218DDF01A20FB11D5D96DD
:1002A0009C93818F08958C910895CF92DF92EF9265
:1002B000FF920F931F93CF93DF936C017A018B0111
:1002C000C0E0D0E0CE15DF0581F0D8016D918D0141
:1002D000D601ED91FC910190F081E02DC6011995B8
:1002E000892B11F02196EECF7E01C701DF91CF91CE
:1002F0001F910F91FF90EF90DF90CF900895089598
:1003000080E090E00895FC01538D448D252F30E06E
:10031000842F90E0821B930B541710F0CF96089512
:1003200001970895FC01918D828D981761F0828D5F
:10033000DF01A80FB11D5D968C91928D9F5F9F7319
:10034000928F90E008958FEF9FEF0895FC01918DBB
:10035000828D981731F0828DE80FF11D858D90E028
:1003600008958FEF9FEF0895FC01918D228D892FC5
:1003700090E0805C9F4F821B91098F7399270895AD
:100380008FEA92E0F1DF21E0892B09F420E0822F4F
:1003900008958CE493E0E8DF21E0892B09F420E064
:1003A000822F089589EE93E0DFDF21E0892B09F4A5
:1003B00020E0822F089586E894E0D6DF21E0892BA3
:1003C00009F420E0822F0895FC01848DDF01A80F3D
:1003D000B11DA35ABF4F2C91848D90E001968F736D
:1003E0009927848FA689B7892C93A089B1898C918C
:1003F000837080648C93938D848D981306C00288DB
:10040000F389E02D80818F7D80830895EF92FF92A4
:100410000F931F93CF93DF93EC0181E0888F9B8D27
:100420008C8D981305C0E889F989808185FD25C0E8
:10043000F62E0B8D10E00F5F1F4F0F731127E02E6C
:100440008C8DE8120BC00FB607FCFACFE889F9894A
:10045000808185FFF5CFCE01B7DFF2CF8B8DFE0116
:10046000E80FF11DE35AFF4FF0829FB7F8940B8F0E
:10047000EA89FB89808180620AC09FB7F894EE897F
:10048000FF896083E889F989808183708064808333
:100490009FBF81E090E0DF91CF911F910F91FF907E
:1004A000EF900895CF93DF93EC01888D8823C1F0FE
:1004B000EA89FB89808185FD05C0A889B9898C916D
:1004C00086FD0EC00FB607FCF5CF808185FFF2CF09
:1004D000A889B9898C9185FFEDCFCE0175DFE8CF72
:1004E000DF91CF91089580E090E0892B19F063DFD0
:1004F000811116C080E090E0892B19F053DF811143
:1005000012C080E090E0892B19F043DF81110EC00A
:1005100080E090E0892B79F033DF81110AC00895E3
:100520000E940000E7CF0E940000EBCF0E94000075
:10053000EFCF0C9400000895863308F08653909115
:100540007B00282F2870977F922B90937B008770D9
:10055000806480937C0080917A00806480937A002C
:1005600080917A0086FDFCCF8091780020917900FF
:1005700090E0922B0895C1C68F929F92AF92BF9246
:10058000CF92DF92EF92FF920F931F93CF93DF935F
:10059000CDB7DEB7A1970FB6F894DEBF0FBECDBFC3
:1005A0006C01990FEE08FF08F7FE29C06DE286E89E
:1005B00094E02CDF8C0122273327A9012C193D0957
:1005C0004E095F0919A2CE0181967C019AE0892E1D
:1005D000912CA12CB12CCA01B901A50194010E9452
:1005E000D00C605DF70162937F0121153105410553
:1005F000510589F7CF0181D6800F911F1CC0A7013B
:10060000960119A28E010F5D1F4F8AE0C82ED12CD2
:10061000E12CF12CCA01B901A70196010E94D00C6E
:10062000605DF80162938F01211531054105510587
:1006300089F7CF0162D6A1960FB6F894DEBF0FBE40
:10064000CDBFDF91CF911F910F91FF90EF90DF9081
:10065000CF90BF90AF909F908F900895909100029F
:1006600089133DC0E2E2F1E0E4919FEF9093000234
:10067000E230C9F050F4EE2399F0E13081F5909129
:100680006F009D7F90936F002AC0E43019F1E0F075
:10069000E53029F5909173009D7F909373001FC002
:1006A00010926E001CC0909170009D7F909370001E
:1006B00091E09093B0009091B100987F94609093F6
:1006C000B1001092B3000BC0909171009D7F909388
:1006D000710005C0909172009D7F909372007FC45D
:1006E0000E94FB0E1F920F920FB60F9211240BB6B1
:1006F0000F922F933F934F935F936F937F938F93BB
:100700009F93AF93BF93EF93FF938091AB02909130
:10071000AC02A091AD02B091AE02892B8A2B8B2B3B
:1007200051F19091AA02E091A802F091A902808172
:10073000892780838091AB029091AC02A091AD0299
:10074000B091AE02181619061A061B06BCF4809169
:10075000AB029091AC02A091AD02B091AE020197B4
:10076000A109B1098093AB029093AC02A093AD02B2
:10077000B093AE0203C08091000270DFFF91EF9151
:10078000BF91AF919F918F917F916F915F914F91A9
:100790003F912F910F900BBE0F900FBE0F901F90A7
:1007A00018951F920F920FB60F9211240BB60F924D
:1007B0002F933F934F935F936F937F938F939F9369
:1007C000AF93BF93EF93FF938FEA92E0FDDDFF912C
:1007D000EF91BF91AF919F918F917F916F915F91B9
:1007E0004F913F912F910F900BBE0F900FBE0F9026
:1007F0001F9018951F920F920FB60F9211240BB6EF
:100800000F922F933F934F935F936F937F938F93A9
:100810009F93AF93BF93EF93FF938FEA92E02CDD0A
:10082000FF91EF91BF91AF919F918F917F916F91C8
:100830005F914F913F912F910F900BBE0F900FBE84
:100840000F901F9018951F920F920FB60F921124C0
:100850000BB60F922F933F934F935F936F937F93BA
:100860008F939F93AF93BF93EF93FF938CE493E0A9
:10087000ABDDFF91EF91BF91AF919F918F917F91F0
:100880006F915F914F913F912F910F900BBE0F9001
:100890000FBE0F901F9018951F920F920FB60F92D8
:1008A00011240BB60F922F933F934F935F936F9347
:1008B0007F938F939F93AF93BF93EF93FF938CE4BA
:1008C00093E0DADCFF91EF91BF91AF919F918F910F
:1008D0007F916F915F914F913F912F910F900BBE40
:1008E0000F900FBE0F901F9018951F920F920FB68A
:1008F0000F9211240BB60F922F933F934F935F9358
:100900006F937F938F939F93AF93BF93EF93FF93D7
:1009100089EE93E059DDFF91EF91BF91AF919F91E7
:100920008F917F916F915F914F913F912F910F9098
:100930000BBE0F900FBE0F901F9018951F920F9235
:100940000FB60F9211240BB60F922F933F934F9334
:100950005F936F937F938F939F93AF93BF93EF9327
:10096000FF9389EE93E088DCFF91EF91BF91AF9107
:100970009F918F917F916F915F914F913F912F91B7
:100980000F900BBE0F900FBE0F901F9018951F92E7
:100990000F920FB60F9211240BB60F922F933F9325
:1009A0004F935F936F937F938F939F93AF93BF9377
:1009B000EF93FF9386E894E007DDFF91EF91BF91FD
:1009C000AF919F918F917F916F915F914F913F91E7
:1009D0002F910F900BBE0F900FBE0F901F90189588
:1009E0001F920F920FB60F9211240BB60F922F93F6
:1009F0003F934F935F936F937F938F939F93AF93A7
:100A0000BF93EF93FF9386E894E036DCFF91EF917C
:100A1000BF91AF919F918F917F916F915F914F9116
:100A20003F912F910F900BBE0F900FBE0F901F9014
:100A30001895CF93DF9390E0FC01E759FE4F249186
:100A4000FC01E753FE4F8491882361F190E0880F09
:100A5000991FFC01E85FFE4FC591D491FC01E1555F
:100A6000FE4FA591B491611109C09FB7F894888198
:100A7000209582238883EC912E230BC0623061F491
:100A80009FB7F8948881322F309583238883EC9127
:100A90002E2B2C939FBF06C08FB7F894E8812E2B86
:100AA00028838FBFDF91CF9108953FB7F89480914D
:100AB000A4029091A502A091A602B091A70226B52A
:100AC000A89B05C02F3F19F00196A11DB11D3FBF86
:100AD000BA2FA92F982F8827820F911DA11DB11D14
:100AE000BC01CD0142E0660F771F881F991F4A9510
:100AF000D1F708958F929F92AF92BF92CF92DF92DB
:100B0000EF92FF926B017C01D0DF4B015C01C114BD
:100B1000D104E104F104E9F0C8DFDC01CB0188195C
:100B20009909AA09BB09883E9340A105B10578F34C
:100B300021E0C21AD108E108F10888EE880E83E0AE
:100B4000981EA11CB11CC114D104E104F10421F7C9
:100B5000DECFFF90EF90DF90CF90BF90AF909F904F
:100B60008F900895282F8091250590912605892B37
:100B700041F0862F90E0A0E0B0E0BC01CD01822BD7
:100B8000A5D280912B0590912C05892B09F0FED2DE
:100B90006CE271E080E090E0ADDF809125059091FE
:100BA0002605892B21F060E070E0CB018FD2809187
:100BB0002B0590912C05892B09F0E8C20895CF935D
:100BC000809100028A3021F08F3F09F0B1C104C04A
:100BD000E2E2F1E0C491DEC08AE080930002E2E24A
:100BE000F1E0E491EF3F09F4A3C1E23009F46AC0F7
:100BF00038F5EE2309F44DC0E13009F0CAC0109277
:100C00008000109281008091810088608093810033
:100C100080918100816080938100E3EDF1E0E491B7
:100C2000F0E0EE0FFF1FE155FE4F85919491E3E751
:100C3000F1E0E491E093890261E08AE0FADED6C057
:100C4000E43009F485C008F462C0E53009F0A1C0C1
:100C500010922001109221018091210188608093DF
:100C6000210180912101816080932101E3EDF1E078
:100C7000E491F0E0EE0FFF1FE155FE4F8591949156
:100C8000E3E7F1E0E491E093860261E08AE0D1DEFF
:100C9000DFC014BC15BC84B5826084BD85B581609D
:100CA00085BDE3EDF1E0E491F0E0EE0FFF1FE155CB
:100CB000FE4F85919491E3E7F1E0E491E0938A029D
:100CC000C0E06AC01092B0001092B1008091B000F4
:100CD00082608093B0008091B10081608093B10008
:100CE000E3EDF1E0E491F0E0EE0FFF1FE155FE4F80
:100CF000859194919093A9028093A802E3E7F1E093
:100D0000E491E093AA0261E08AE093DE65C010926C
:100D100090001092910080919100886080939100E2
:100D200080919100816080939100E3EDF1E0E49186
:100D3000F0E0EE0FFF1FE155FE4F85919491E3E740
:100D4000F1E0E491E093880261E08AE072DE6EC037
:100D50001092A0001092A1008091A1008860809361
:100D6000A1008091A10081608093A100E3EDF1E0FA
:100D7000E491F0E0EE0FFF1FE155FE4F8591949155
:100D8000E3E7F1E0E491E093870261E08AE051DE7D
:100D900056C0CE2FC7FDCCC061E08AE04ADECC232E
:100DA00019F0C230C9F020C085B5887F836085BD49
:100DB00084E487BD84EB90E0A0E0B0E080939B02E8
:100DC00090939C02A0939D02B0939E0280916E002E
:100DD000826080936E00ACC08091B100887F836098
:100DE0008093B10089E849C0C130F1F4809181005D
:100DF000887F8160809381008BE591E190938900E9
:100E00008093880084EB90E0A0E0B0E080939702AC
:100E100090939802A0939902B0939A0280916F00E8
:100E2000826080936F0084C0C33039F48091910058
:100E3000887F81608093910034C0C43039F4809100
:100E4000A100887F81608093A10043C0C53039F440
:100E500080912101887F81608093210152C0C3303D
:100E600001F12CF4C23009F063C08BE506C0C43038
:100E700081F1C53009F445C05BC08093B30084EBB9
:100E800090E0A0E0B0E08093AB029093AC02A0931E
:100E9000AD02B093AE0280917000826080937000CA
:100EA00047C08BE591E1909399008093980084EB83
:100EB00090E0A0E0B0E08093930290939402A0931E
:100EC0009502B093960280917100826080937100C8
:100ED0002FC08BE591E19093A9008093A80084EB4B
:100EE00090E0A0E0B0E080938F0290939002A093F6
:100EF0009102B0939202809172008260809372009E
:100F000017C08BE591E1909329018093280184EB30
:100F100090E0A0E0B0E080938B0290938C02A093CD
:100F20008D02B0938E028091730082608093730073
:100F300062E370E080E090E0DDDD8AE08FDB62E379
:100F400070E080E090E0CF91D5CD1F920F920FB668
:100F50000F9211242F933F938F939F93AF93BF933F
:100F60008091A0029091A102A091A202B091A3024F
:100F700030919F0223E0230F2D3720F40196A11D0D
:100F8000B11D05C026E8230F0296A11DB11D2093B7
:100F90009F028093A0029093A102A093A202B0931B
:100FA000A3028091A4029091A502A091A602B09103
:100FB000A7020196A11DB11D8093A4029093A502E2
:100FC000A093A602B093A702BF91AF919F918F917A
:100FD0003F912F910F900FBE0F901F90189590E0AA
:100FE000FC01ED5DFE4F4491FC01E759FE4F249159
:100FF000FC01E753FE4F9491992309F466C0442302
:1010000009F454C050E0FA013197E231F10508F0DB
:101010004DC08827EE58FF4F8F4FE4C48091800069
:101020008F7707C0809180008F7D03C08091800002
:10103000877F809380003AC084B58F7702C084B5E3
:101040008F7D84BD33C08091B0008F7703C08091C5
:10105000B0008F7D8093B00029C0809190008F7781
:1010600007C0809190008F7D03C080919000877FA2
:10107000809390001BC08091A0008F7707C0809163
:10108000A0008F7D03C08091A000877F8093A00087
:101090000DC0809120018F7707C0809120018F7D46
:1010A00003C080912001877F80932001E92FF0E029
:1010B000EE0FFF1FE155FE4FA591B4919FB7F89435
:1010C0008C91209528232C939FBF08958F929F92F7
:1010D000AF92BF92CF92DF92EF92FF92CF93DF93C6
:1010E0004C01AA24BB24A82DC72ED82EE92EFF24FC
:1010F000FC2DE62F20912A05222361F0829E4001DB
:101100001124A92D2C9D60011124FD2D269FA001E5
:101110001124E52F30913005B0912D0540912B051C
:1011200050912C053B17A9F0892E9924AA24BB24A1
:10113000EA01C30FD11D211102C0682D09C030E0A2
:10114000289D7001299DF00C389DF00C11246F2D05
:10115000688380912D05EA01C80FD11DA883809175
:101160002E05DA01A80FB11DFC9380912F05DA013D
:10117000A80FB11DEC93DF91CF91FF90EF90DF901E
:10118000CF90BF90AF909F908F9008950F931F9333
:10119000CF93DF93CDB7DEB729970FB6F894DEBFB4
:1011A0000FBECDBF82DC0091310510913205209138
:1011B000330530913405DC01CB01801B910BA20B70
:1011C000B30B8C329140A105B10560F3F894809186
:1011D0002705909128059A838983E0912B05F0914A
:1011E0002C05DF0111968081898790912305E0917C
:1011F0003505F091360580913705992309F42EC005
:101200009081982B98879081809589238F838F81F7
:101210008C8388E08B8358856F8149853B812C8145
:1012200089819A81508347FD252F3A952083262F67
:1012300039F0441F00C000006083000000C0F2CFFE
:1012400038E04D9160830000019761F7F093360517
:10125000E093350549873B832C8338C09081982BD8
:1012600098879081809589238F838F818E8388E0F2
:101270008D8358856F8149853D812E8189819A8131
:10128000508347FD252F00C000C0208300C000C050
:1012900000C000C000C060830000262F3A9541F0D6
:1012A000441F000000C000C000C000C000C0E8CF64
:1012B00038E04D9100C0608300C0019709F7F093BA
:1012C0003605E093350549873D832E839A838983CC
:1012D0007894EBDB6093310570933205809333058E
:1012E0009093340529960FB6F894DEBF0FBECDBF9C
:1012F000DF91CF911F910F910895009769F0FC0144
:1013000001900020E9F73197AF01481B590BBC0150
:1013100086E894E00C94550180E090E0089578947C
:1013200084B5826084BD84B5816084BD85B58260EA
:1013300085BD85B5816085BD80916E00816080939B
:101340006E00109281008091810082608093810004
:101350008091810081608093810080918000816014
:10136000809380008091B10084608093B10080916F
:10137000B00081608093B000809191008260809382
:101380009100809191008160809391008091900004
:101390008160809390008091A10082608093A10081
:1013A0008091A10081608093A1008091A000816064
:1013B0008093A0008091210182608093210180911F
:1013C00021018160809321018091200181608093BF
:1013D000200180917A00846080937A0080917A0065
:1013E000826080937A0080917A00816080937A0095
:1013F00080917A00806880937A001092C100E09119
:101400009604F091970482E08083E0919204F09139
:1014100093041082E0919404F091950480E180831C
:1014200010929E04E0919A04F0919B0486E08083E0
:10143000E0919804F0919904808180618083E0912B
:101440009804F0919904808188608083E0919804E9
:10145000F0919904808180688083E0919804F091F4
:10146000990480818F7D808361E08AE0E2DA809157
:10147000290587FD05C061E0DCDA80912905AFDD33
:1014800081E0809324059BDB9ADB99DB60E070E0D0
:1014900084E690E067DB8EE34FD8EC0189E192E0CF
:1014A0006AD881E090E0C43FD14014F480E090E03D
:1014B00063D88FE192E05FD88FE33ED882E292E07A
:1014C0005AD880E090E058D88FE192E054D880E478
:1014D00033D888E292E04FD880E090E04DD88FE199
:1014E00092E049D881E428D88EE292E044D880E0A6
:1014F00090E042D88FE192E03ED882E41DD884E3A8
:1015000092E039D880E090E037D88FE192E033D88C
:1015100083E412D88AE392E02ED880E090E02CD8C1
:101520008FE192E028D884E407D880E492E023D8C1
:1015300080E090E021D88FE192E01DD880E00E9409
:101540009C0286E492E017D880E090E015D88FE105
:1015500092E011D886E30E949C028CE492E00BD8C2
:1015600080E090E009D88FE192E005D887E30E94FF
:101570009C0282E592E00E94BB0280E090E00E9423
:10158000BC028FE192E00E94BB0288E30E949C02B1
:1015900089E592E00E94BB0280E090E00E94BC02DC
:1015A0008FE192E00E94BB0289E30E949C0280E6E8
:1015B00092E00E94BB0280E090E00E94BC028FE1BA
:1015C00092E00E94BB028AE30E949C0287E692E0BE
:1015D0000E94BB0280E090E00E94BC028FE192E09A
:1015E0000E94BB028BE30E949C028EE692E00E9466
:1015F000BB0280E090E00E94BC028FE192E00E947A
:10160000BB028CE30E949C0285E792E00E94BB0231
:1016100080E090E00E94BC028FE192E00E94BB0259
:101620008DE30E949C028CE792E00E94BB0280E066
:1016300090E00E94BC028FE192E00E94BB0283E82E
:1016400092E05BDE83E892E058DE64E670E080E0E2
:1016500090E088DA60ED77E080E090E04BDA0E947D
:10166000730219CF80912B0590912C05009709F0FA
:1016700059D28091290587FD02C060E0DAD98091B6
:101680003805909139054ED280913E0590913F05E5
:1016900049C2CF93DF93EC01198218821B821A8210
:1016A0001D821C8261E070E080E090E0C4D200976F
:1016B00059F0998388831B821A822C813D81232BC8
:1016C00089F4FC0110820EC088819981009709F08D
:1016D00029D2198218821D821C821B821A82DF91F4
:1016E000CF9108951D821C8265E872E088819981FE
:1016F000DF91CF918DC31092B2021092B10248EEE9
:1017000053E060E070E04093B3025093B402609302
:10171000B5027093B6028BE092E09093B002809392
:10172000AF0225E331E03093BC022093BB0224E3F7
:1017300031E03093BE022093BD0220E331E03093CC
:10174000C0022093BF0221E331E03093C202209314
:10175000C10222E331E03093C4022093C30226E3A6
:1017600031E03093C6022093C5021092C802109255
:10177000C9021092CA021092CB0210924F0310922B
:101780004E03409350035093510360935203709360
:10179000530390934D0380934C0325ED30E0309339
:1017A00059032093580324ED30E030935B032093DA
:1017B0005A0320ED30E030935D0320935C0321ED6C
:1017C00030E030935F0320935E0322ED30E03093EE
:1017D00061032093600326ED30E030936303209390
:1017E00062031092650310926603109267031092D1
:1017F00068031092EC031092EB034093ED035093B7
:10180000EE036093EF037093F0039093EA038093E9
:10181000E9032DEC30E03093F6032093F5032CEC34
:1018200030E03093F8032093F70328EC30E0309356
:10183000FA032093F90329EC30E03093FC03209362
:10184000FB032AEC30E03093FE032093FD032EECE3
:1018500030E0309300042093FF03109202041092B2
:10186000030410920404109205041092890410924B
:10187000880440938A0450938B0460938C04709383
:101880008D04909387048093860485EC90E0909378
:1018900093048093920484EC90E090939504809359
:1018A000940480EC90E0909397048093960481ECEC
:1018B00090E0909399048093980482EC90E0909348
:1018C0009B0480939A0486EC90E090939D0480930F
:1018D0009C0410929F041092A0041092A1041092F4
:1018E000A2048EE395E0D5DE88E395E0D2DE109287
:1018F000240510922A05109231051092320510929B
:1019000033051092340581E08093300580932D05D6
:1019100010922E0592E090932F058093230583E08B
:1019200090E0909328058093270564D090932C0530
:1019300080932B05009761F023E0FC0111922A951A
:10194000E9F781E090E0909326058093250508C093
:101950001092280510922705109226051092250551
:101960008CE08093290580912405882329F061E08B
:101970008CE05FD88CE033DBE5EDF1E0E491F0E062
:10198000EE0FFF1FE155FE4F859194919093360520
:1019900080933505E5E7F1E0E491E093370508959C
:1019A000A1E21A2EAA1BBB1BFD010DC0AA1FBB1F63
:1019B000EE1FFF1FA217B307E407F50720F0A21BD5
:1019C000B30BE40BF50B661F771F881F991F1A9442
:1019D00069F760957095809590959B01AC01BD016C
:1019E000CF010895EE0FFF1F881F8BBF0790F69160
:1019F000E02D19940F931F93CF93DF9382309105BD
:101A000010F482E090E0E0914605F091470520E077
:101A100030E0A0E0B0E0309719F1408151810281BF
:101A2000138148175907C8F08417950769F4109770
:101A300031F012960C93129713961C9327C00093C3
:101A400046051093470522C02115310519F04217AC
:101A5000530718F49A01BD01EF01DF01F801DBCF54
:101A600021153105F9F0281B390B2430310580F49C
:101A70008A819B816115710521F0FB01938382832B
:101A800004C09093470580934605FE01329644C0FA
:101A9000FE01E20FF31F81939193225031093983A4
:101AA00028833AC02091440530914505232B41F409
:101AB00020910302309104023093450520934405A0
:101AC00020910102309102022115310541F42DB718
:101AD0003EB74091050250910602241B350BE09160
:101AE0004405F0914505E217F307A0F42E1B3F0BC8
:101AF0002817390778F0AC014E5F5F4F2417350780
:101B000048F04E0F5F1F5093450540934405819365
:101B1000919302C0E0E0F0E0CF01DF91CF911F91FF
:101B20000F910895CF93DF93009709F481C0FC01D2
:101B3000329713821282A0914605B0914705109703
:101B400081F420813181820F931F209144053091CF
:101B500045052817390751F5F0934505E0934405ED
:101B600067C0ED0120E030E0CE17DF0740F44A8186
:101B70005B819E0141155105F1F0EA01F5CFD38358
:101B8000C28340815181840F951FC817D90759F42A
:101B900088819981840F951F0296918380838A8121
:101BA0009B81938382832115310529F4F0934705A6
:101BB000E09346053DC0E901FB83EA8349915991D1
:101BC000C40FD51FEC17FD0761F480819181840F4C
:101BD000951F0296E90199838883828193819B8373
:101BE0008A83E0E0F0E012968D919C911397009724
:101BF00019F0FD01DC01F7CF8D919C9111979D01AA
:101C00002E5F3F4F820F931F209144053091450571
:101C10002817390769F4309729F410924705109274
:101C2000460502C013821282B0934505A093440575
:101C3000DF91CF9108956F927F928F929F92AF9292
:101C4000BF92CF92DF92EF92FF920F931F93CF93A9
:101C5000DF93009781F4CB01DF91CF911F910F911A
:101C6000FF90EF90DF90CF90BF90AF909F908F90BC
:101C70007F906F90BFCEFC01E60FF71F9C012250B2
:101C80003109E217F30708F4A5C0EC01D9010D9161
:101C90001C91119706171707A8F00530110508F4D5
:101CA00097C0C80104978617970708F491C002509F
:101CB0001109061B170B019311936D937C93CF01B0
:101CC00031DF86C05B01A01AB10A4C01800E911E63
:101CD000A0914605B0914705612C712CE12CF12CA7
:101CE000109709F446C08D919C911197A815B905DC
:101CF000B1F56C0142E0C40ED11CCA14DB0478F1CA
:101D00004C018A189B08640142E0C40ED11C129653
:101D1000BC9012971396AC91B5E0CB16D10440F06D
:101D2000B282A38391828082D9016D937C9309C092
:101D30000E5F1F4F800F911FF90191838083EB2D60
:101D4000FA2FE114F10431F0D7011396FC93EE93CE
:101D500012973EC0F0934705E093460539C06816D8
:101D6000790608F43C017D0112960D90BC91A02DDE
:101D7000B7CF809144059091450588169906E1F406
:101D800066167706C8F480910102909102020097CE
:101D900041F48DB79EB74091050250910602841B15
:101DA000950BE817F907B0F4F0934505E093440567
:101DB000F901718360830CC0CB011CDE7C010097AC
:101DC00049F0A801BE011BD0CE01ACDEC70104C0A2
:101DD000CE0102C080E090E0DF91CF911F910F9182
:101DE000FF90EF90DF90CF90BF90AF909F908F903B
:101DF0007F906F90089581E090E0F89410C0FB010F
:101E0000DC0102C001900D9241505040D8F7089576
:101E1000FB01DC0101900D920020E1F7089511E033
:101E2000C9E0D1E000E005C0802FFE01DBDD219696
:101E3000011DCA30D10780E00807B1F7F894FFCF41
:101E4000FF000048058000000000000602550183E5
:101E5000015202B4019201A601494F313A200020FB
:101E60002000494F323A2000494F333A2000494F71
:101E7000343A2000494F353A2000494F363A200085
:101E8000494F373A2000494F383A2000494F393AF4
:101E90002000494F31303A2000494F31313A20007B
:101EA000494F31323A2000494F31333A2000494FEF
:101EB00031343A2000494F31353A2000494F31360C
:061EC0003A20000D0A00AB
:00000001FF
